:020000040000FA
:1000000098450020150200001D0200001F0200009C
:100010002102000023020000250200000000000071
:1000200000000000000000000000000027020000A7
:1000300029020000000000002B0200002D02000039
:100040002F0200002F0200002F0200002F020000EC
:100050002F0200002F020000FD0200002F0200000E
:10006000B1050000D10500002F0200002F020000A2
:100070002F0200002F0200002F0200002F020000BC
:100080002F0200002F0200002F0200002F020000AC
:100090002F0200002F0200002F0200002F0200009C
:1000A0002F0200002F0200002F0200002F0200008C
:1000B0002F0200002F0200000000000000000000DE
:1000C0002F0200002F0200002F0200002F0200006C
:1000D0002F0200002F0200002F0200002F0200005C
:1000E0002F0200002F0200002F020000000000007D
:1000F000000000002F020000000000002F0200009E
:1001000000000000000000000000000000000000EF
:1001100000000000000000000000000000000000DF
:1001200000000000000000000000000000000000CF
:1001300000000000000000000000000000000000BF
:1001400000000000000000000000000000000000AF
:10015000000000000000000000000000000000009F
:10016000000000000000000000000000000000008F
:10017000000000000000000000000000000000007F
:10018000000000000000000000000000000000006F
:10019000000000000000000000000000000000005F
:1001A000000000000000000000000000000000004F
:1001B000000000000000000000000000000000003F
:1001C000000000000000000000000000000000002F
:1001D000000000000000000000000000000000001F
:1001E000000000000000000000000000000000000F
:1001F00000000000000000000000000000000000FF
:10020000DFF80CD000F068F800480047710B0000E0
:10021000984500200648804706480047FEE7FEE76D
:10022000FEE7FEE7FEE7FEE7FEE7FEE7FEE7FEE7A6
:1002300091030000010200002DE9F05F0546002057
:1002400092469B4688460646814640241BE0284647
:1002500041464746224600F02FF853465A46C01AF8
:10026000914110D311461846224600F016F82D1A77
:1002700067EB01084F4622460120002100F00DF8EF
:1002800017EB00094E41201EA4F10104DFDC4846B3
:1002900031462A464346BDE8F09F202A04DB203A37
:1002A00000FA02F1002070479140C2F1200320FAC9
:1002B00003F3194390407047202A04DB203A21FAC7
:1002C00002F00021704721FA02F3D040C2F120026F
:1002D0009140084319467047064C074D06E0E06818
:1002E00040F0010394E8070098471034AC42F6D37D
:1002F000FFF78AFF54130000741300002DE9F0414A
:1003000000200AE01B4951F82010012904D10022E5
:10031000184941F820200646401C0828F2DB00203E
:1003200007E0154951F82010B14201D1054602E01D
:10033000401C2028F5DB00BF284600F013FB0B2DE6
:1003400006D00C2D06D0182D06D0192D08D105E0A9
:10035000002405E0012403E0022401E0032400BF9F
:1003600000BF27042F4339460220044A12689047F1
:10037000BDE8F08100610040180500204000002029
:1003800001480249086070470090D00348000020EF
:1003900010B500F0B9FC40B10020774908604FF07B
:1003A0008041C1F810017549086000F0CFFC0028B9
:1003B00055D073480068734908607148001D006893
:1003C000091D08606E4808300068091D08606C4807
:1003D0000C300068091D0860694810300068091D6C
:1003E0000860674814300068091D086064481830C8
:1003F000006864492031086061481C300068091DAC
:1004000008605F4820300068091D08605C4824309F
:100410000068091D08605A4828300068091D0860F6
:1004200057482C300068091D086055483030006876
:10043000544940310860524834300068091D086052
:100440004F4838300068091D08604D483C3000684E
:10045000091D08604A4840300068091D086000F026
:1004600097FC10B148484949086000F0C5FB10B13D
:10047000FB204749086000F0E1FB38B145480178AE
:100480004548006861F303004349086000F0F8FB49
:1004900018B14FF400704149086000F013FC40B1FE
:1004A0003F48006800F0010018B16FF001003C49BE
:1004B00008603C48006840F470003A49086000BF9A
:1004C00000BF00BFBFF34F8F00BF00BF00BF00BF22
:1004D00000BF00BFBFF36F8F00BF00BF00BF00BFF2
:1004E00000F068FB20B130480068244920310860E2
:1004F00000BF2D480838006800F0004028B92A489D
:10050000001F006800F0004090B3012000F062FC82
:10051000122025490839086000F066FC12214FF0CE
:100520001020C0F8041200F05FFC002000F052FC24
:1005300000BF00BF00BF00BF00BFBFF34F8F00BFB1
:1005400000BF00BF17487C38006800F4E06017491E
:100550000843001D13497C39086000BF00BF00BF7D
:10056000BFF34F8F00BF00BF00BF00BF00BFFDE75C
:10057000FFE7FFF705FF10BD0C0100403805004004
:100580000404001020C50040488103008C56004040
:1005900018F5004058020010E40E0040409602405A
:1005A0000004004088ED00E0081200100000FA0589
:1005B0000548006810B1002003490860034800683E
:1005C000401C02490860704740810040380000200C
:1005D00010B50548006880470448006810B1002045
:1005E0000249086010BD00003C000020409100401E
:1005F00000280DDB00BF00BF00F01F020121914069
:100600004209920002F1E022C2F8001100BF00BFCF
:10061000704702E008C8121F08C1002AFAD17047CB
:100620007047002001E001C1121F002AFBD1704772
:1006300010B50A49022000F035FD0949052000F0F7
:1006400031FD4FF49671012000F0FAFD04460022BE
:10065000052100F05DFD00F0B3FC10BD6506000053
:100660006D1000002DE9F04180460C46124D04EA61
:100670000500060C1148006886421BD10F4800682F
:10068000401C00F0CBF80D480068401C0C4909687C
:1006900090FBF1F201FB1200084908604FF49671DB
:1006A000012000F0CDFD07460448052102683846C8
:1006B00000F02EFDBDE8F0810000FFFF00000020EB
:1006C0000400002010B500F00BFD00F027F900F049
:1006D00013FD10BD10B50446204600F027F910BDEB
:1006E0002DE9F04105460E46174600240DE00D4960
:1006F000085D294600F058F90A49085D00F048F9FC
:100700000849085D00F03AF9641C042CEFDB064947
:10071000304600F0C7FC0449384600F0C3FCBDE891
:10072000F08100004D1300002D0700002DE9F0417D
:1007300007460C464FF6FF7604EA06051C4800788B
:1007400030B101280DD0022814D003282CD124E088
:100750002A460421322000F0DBFC012014490870F5
:1007600022E02A460421322000F0D2FC0220104967
:10077000087019E0204600F067F928B92A460421DC
:10078000322000F0C5FC07E00320094908702A4622
:100790000421322000F0BCFC06E0284600F0F8F806
:1007A00000200349087000BF00BFBDE8F0810000D1
:1007B0003100002010B50348006800F05FF800F039
:1007C000C7F810BD1800002010B50348006800F0FD
:1007D00055F800F0C5F810BD1800002010B504460B
:1007E00004480460006800F093F80248006800F0D4
:1007F00051F810BD1800002010B5054800680549E3
:10080000096888470448006800F044F810BD0000FB
:100810000C000020140000201000002010B5044639
:10082000042C07D834B1611E034A505C4FF0FF31ED
:1008300000F0F4F810BD00004413000010B50446A9
:10084000042C06D82CB1611E024A505C002100F035
:10085000E5F810BD4413000010B5002408E0064977
:10086000085D012100F0FEF8601CFFF7D7FF641C53
:10087000042CF4D3042010BD4413000010B504462A
:10088000611E034A505C6FF0010100F0C7F810BD13
:100890004813000010B50446611E034A505C012154
:1008A00000F0BCF810BD00004813000070B500F067
:1008B000EFF804460348002302682046FFF7BCFC1B
:1008C00070BD00000800002010B500F0F7F80149E5
:1008D000086010BD0800002070B504460D4616469D
:1008E00007480560074806604FF47A7204FB02F17E
:1008F000054A126801FB02F0044900F009F970BDD5
:10090000140000200C00002008000020F90700005F
:1009100001490860704700001000002001480249AA
:10092000086070473546526E000601400021064AB5
:100930001160C103491E044A083A11600121121DC9
:100940001160024A116070470C050140000001402F
:1009500001200249086000E020BFFDE700050040DB
:1009600030BF7047034911F8202001219140024A0D
:10097000116070471805002008630040024A0349CF
:1009800041F82020704700000C00030000070050D1
:10099000034911F8202001219140024A116070475B
:1009A000180500200463004010B50A4615490A6086
:1009B0000C23154941F82030144941EA0023144919
:1009C000144C246841F8243012490968124B43F84A
:1009D000201010490968491C0E4B19600621002996
:1009E0000DDB00BF00BF01F01F040123A3404C0931
:1009F000A40004F1E024C4F8003100BF00BF00BF30
:100A000010BD00004000002000070050010003005E
:100A1000106500404400002018050020012303FA5F
:100A200000F201F0010313B9034B1A6002E0024B1C
:100A30001B1F1A60704700000C0500500020014980
:100A400008607047140500500146012000FA01F2C9
:100A500003480068104008B1012070470020FCE7FF
:100A60001005005010B5012303FA00F211B9064B2E
:100A70001A6008E0012906D1034B1B1F1A600124EC
:100A8000024B43F8204010BD1C05005000070050E9
:100A900030B50121064841640648006841420024FF
:100AA000054800680A1844EB04031046194630BD97
:100AB00000800040380000204485004010B5002030
:100AC0000F49086003200F49086000200D490831D4
:100AD00008600C49091F0860801E0A493831086007
:100AE00001200949086000040849C1F804030820EE
:100AF000FFF77EFD012005490860102010BD0000B1
:100B0000380000200885004000820040008000403E
:100B100070B504460D4612480560ECB1012011493C
:100B2000C86003201049086000200F4908310860A0
:100B30000D49091F08600C483830046001200B493A
:100B4000086000040749C1F804030920FFF750FDBD
:100B500001200449086002E001200249486070BD9C
:100B60003C000020009000400895004000920040AA
:100B700010B5FFF763FFFFF76FFE0446032000F098
:100B8000F3F9FFF7A1FE1520FFF7A4FD0120FFF701
:100B900025FE042202210648FFF7A2FD0122044996
:100BA000022000F053FBFFF743FD002010BD0000C2
:100BB000F90D00000F4802684FF08050D0F8341152
:100BC000082A14D1062910D2DFE801F0030507092D
:100BD0000B0D002070470020FCE70020FAE7002002
:100BE000F8E70020F6E70120F4E70120F2E7002013
:100BF000F0E70000300100100F4802684FF080500D
:100C0000D0F83411082A14D1062910D2DFE801F0F7
:100C1000030507090B0D012070470020FCE70020A9
:100C2000FAE70020F8E70020F6E70020F4E70020CC
:100C3000F2E70020F0E70000300100100F480268E2
:100C40004FF08050D0F83411082A14D1062910D260
:100C5000DFE801F0030507090B0D012070470020B4
:100C6000FCE70020FAE70020F8E70020F6E7002084
:100C7000F4E70020F2E70020F0E700003001001068
:100C80000F4802684FF08050D0F83411082A14D170
:100C9000062910D2DFE801F0030507090B0D01203A
:100CA00070470020FCE70020FAE70020F8E700206A
:100CB000F6E70020F4E70020F2E70020F0E700006C
:100CC000300100100F4802684FF08050D0F8341106
:100CD000082A14D1062910D2DFE801F0030507091C
:100CE0000B0D012070470120FCE70120FAE70120ED
:100CF000F8E70120F6E70120F4E70120F2E7002001
:100D0000F0E70000300100100F4802684FF08050FB
:100D1000D0F83411082A14D1062910D2DFE801F0E6
:100D2000030507090B0D012070470120FCE7012096
:100D3000FAE70120F8E70120F6E70120F4E70120B7
:100D4000F2E70020F0E70000300100100F480268D1
:100D50004FF08050D0F83411082A14D1062910D24F
:100D6000DFE801F0030507090B0D012070470120A2
:100D7000FCE70120FAE70120F8E70120F6E701206F
:100D8000F4E70120F2E70020F0E700003001001056
:100D90000F4802684FF08050D0F83411082A14D15F
:100DA000062910D2DFE801F0030507090B0D012029
:100DB00070470020FCE70020FAE70020F8E7002059
:100DC000F6E70020F4E70020F2E70020F0E700005B
:100DD0003001001000B501460248016000F004F83F
:100DE00000BD000004E5014000BF02480068002883
:100DF000FBD0704700E401407FB504460D4600F08B
:100E00006FF900F095F828B116480068FFF742FD29
:100E100000BFFEE700F09EF810B100201249086004
:100E200012480078401C00F03F0010490860E0B212
:100E30008DF800000195FFF739FDCDE902010C485E
:100E40000A49096800EB01109DE84E004EC00948B0
:100E500050F82400401C074941F8240000F04CF9E8
:100E60007FBD00001C000020240000202000002086
:100E700050000020500400202DE9F04104460D46AA
:100E8000164600F02DF900F065F820B100F034F9B5
:100E90000020BDE8F08123482349096800EB0110D8
:100EA000007820701F482049096800EB0110406855
:100EB00028601C481C49096800EB0110C168806863
:100EC000C6E900011848006818490968884209D134
:100ED0004FF0FF30144908601449086000F00CF925
:100EE0000120D6E710480078401C00F03F000E4972
:100EF0000860084600680D490968884206D20B4818
:100F0000006809490968401A401C05E00648006865
:100F100006490968401A401C074600F0EDF8F8B28F
:100F2000B7E700005000002024000020200000202F
:100F300006480078401C00F03F00054909688842D7
:100F400001D1012070470020FCE7000020000020B4
:100F50002400002003480068401C08B901207047A5
:100F60000020FCE72400002010B50446114804606E
:100F700000200BE0002106E000220F4B03EB0013E2
:100F800043F82120491C0429F6DB401C0628F1DB2C
:100F90000A49002000F086F80849022000F082F893
:100FA0000649032000F07EF80449052000F07AF895
:100FB00010BD000028000020680400202910000057
:100FC0001FB542F6E061002000F03AF90446002225
:100FD000032100F09DF824E0FFF7BCFFF8B96A4652
:100FE00002A903A8FFF748FFFFF76CFB002413E0FA
:100FF0000C489DF80C1000EB011050F8240050B183
:1010000008489DF80C1000EB011050F824209DF8C2
:101010000C0002999047641C042CE9DB01E0FFF707
:10102000D3FBD9E76804002070B504460D46A4B18F
:10103000022C07D0032C02D0052C13D10EE0FFF7B1
:10104000B9FB10E044F62061002000F0F9F80646F4
:101050000022032100F05CF805E004E02846FFF7D9
:10106000DDFB00E000BF00BF70BD000010B50B4805
:101070000068401CFFF7D2FB08480068401C084984
:10108000096890FBF1F201FB120004490860084670
:101090000068401CFFF7D2FB10BD000000000020DC
:1010A0000400002070B504460D4600200CE00A49FB
:1010B00001EB041151F8201029B9074901EB041183
:1010C00041F8205070BD401C0428F0DB0348006844
:1010D000FFF7E0FB00BFFEE76804002028000020C7
:1010E00072B60448006803490968491C014A116046
:1010F000704700003400002004480068401E034987
:1011000008600846006800B962B6704734000020E5
:101110002DE9F04705460E461746D5B9002015E0E3
:1011200000EB8001434A02EB8101497AB1420CD1C4
:10113000002100EB80023F4B03F8221000EB8002FD
:1011400003EB82025172BDE8F087401C0428E7DB04
:10115000F9E739480078401C042803DD3748006867
:10116000FFF798FB4FF0004905EA09004FEAD078F5
:101170004FF0FF34002031E000EB80012D4A02EBFC
:101180008101497AB14220D1012100EB8002294B33
:1011900003F8221025F0784100EB800203EB820275
:1011A000516000EB800203EB820282F8088000EBC2
:1011B00080011A4602EB8101CF6025F0784100EBF7
:1011C000800203EB82021161BDE700EB8001194A46
:1011D00002EB8101497A01B90446401C0428CBDBAB
:1011E000601C28B304EB8400124901EB80004672B6
:1011F000012004EB84010F4A02F8210025F0784019
:1012000004EB840102EB8101486004EB840102EBF2
:10121000810181F8088004EB8400114601EB800015
:10122000C76025F0784004EB840102EB810108617E
:1012300000BF88E7C8040020300000202C000020F8
:101240000246D30743EA01007047000070B5044628
:101250000E4615460F48046000200F49087000BF75
:101260000BE0002100EB80020C4B03EB8202517279
:1012700000EB800203F82210401C0428F1DB2A4610
:1012800031463220FFF728FB05492846FFF70AFFC1
:1012900070BD00002C00002030000020C804002099
:1012A000A512000070B505460E46012D45D100245B
:1012B00040E004EB8400224911F8200090B304EBD5
:1012C000840001EB80000069323804EB84011C4A81
:1012D00002EB8101086104EB8400114601EB800000
:1012E0000069F8B904EB84020B4603EB8202D16873
:1012F00004EB840203EB8202507AFFF77DFD04EBDE
:1013000084000F4901EB8000007A01280BD104EB27
:10131000840001EB8000406804EB8401084A02EB82
:101320008101086105E0002004EB8401044A02F811
:101330002100641C042CBCDB00E000BF00BF70BDBA
:10134000C80400200D0E0F101C1D1E1F020B0C18D0
:101350001900000074130000000000204C00000081
:1013600012060000C01300004C0000204C45000095
:101370002206000000000000040000000000000041
:10138000000000000000000000000000000000005D
:10139000000000000000000000000000000000004D
:1013A000000000000000000000000000000000003D
:1013B0000000000000000000040000000090D003C6
:0400000500000215E0
:00000001FF
