:020000040000FA
:1000000068450020150200001D0200001F020000CC
:100010002102000023020000250200000000000071
:1000200000000000000000000000000027020000A7
:1000300029020000000000002B0200002D02000039
:100040002F0200002F0200002F0200002F020000EC
:100050002F0200002F020000FD0200002F0200000E
:100060002D060000510600002F0200002F020000A4
:100070002F0200002F0200002F0200002F020000BC
:100080002F0200002F0200002F0200002F020000AC
:100090002F0200002F0200002F0200002F0200009C
:1000A0002F0200002F0200002F0200002F0200008C
:1000B0002F0200002F0200000000000000000000DE
:1000C0002F0200002F0200002F0200002F0200006C
:1000D0002F0200002F0200002F0200002F0200005C
:1000E0002F0200002F0200002F020000000000007D
:1000F000000000002F020000000000002F0200009E
:1001000000000000000000000000000000000000EF
:1001100000000000000000000000000000000000DF
:1001200000000000000000000000000000000000CF
:1001300000000000000000000000000000000000BF
:1001400000000000000000000000000000000000AF
:10015000000000000000000000000000000000009F
:10016000000000000000000000000000000000008F
:10017000000000000000000000000000000000007F
:10018000000000000000000000000000000000006F
:10019000000000000000000000000000000000005F
:1001A000000000000000000000000000000000004F
:1001B000000000000000000000000000000000003F
:1001C000000000000000000000000000000000002F
:1001D000000000000000000000000000000000001F
:1001E000000000000000000000000000000000000F
:1001F00000000000000000000000000000000000FF
:10020000DFF80CD000F068F800480047710A0000E1
:10021000684500200648804706480047FEE7FEE79D
:10022000FEE7FEE7FEE7FEE7FEE7FEE7FEE7FEE7A6
:10023000AD030000010200002DE9F05F054600203B
:1002400092469B4688460646814640241BE0284647
:1002500041464746224600F02FF853465A46C01AF8
:10026000914110D311461846224600F016F82D1A77
:1002700067EB01084F4622460120002100F00DF8EF
:1002800017EB00094E41201EA4F10104DFDC4846B3
:1002900031462A464346BDE8F09F202A04DB203A37
:1002A00000FA02F1002070479140C2F1200320FAC9
:1002B00003F3194390407047202A04DB203A21FAC7
:1002C00002F00021704721FA02F3D040C2F120026F
:1002D0009140084319467047064C074D06E0E06818
:1002E00040F0010394E8070098471034AC42F6D37D
:1002F000FFF78AFFE80C0000080D0000284BD3F838
:1003000000C10022BCF1010F04BFC3F8002100208E
:10031000D3F804C1BCF1010F04BFC3F804210120CC
:10032000D3F808C1BCF1010F04BFC3F808210220B3
:10033000D3F80CC1BCF1010F04BFC3F80C2103209A
:10034000D3F810C1BCF1010F04BFC3F81021042081
:10035000D3F814C1BCF1010F04BFC3F81421052068
:10036000D3F818C1BCF1010F04BFC3F8182106204F
:10037000D3F81CC1BCF1010F04BFC3F81C21072036
:100380000022084B53F822C0844501D1114602E0F7
:10039000521C202AF6DB044A022052681047000053
:1003A00000600040E80400203800002010B44FF046
:1003B00080520023D2E94C10082909D14FF0804C1B
:1003C000CCF80C31CCF81031DFF8D4C1CCF80030C7
:1003D000082965D1734B1B68DFF8CCC1CCF800301D
:1003E000724B1B680CF1040CCCF80030704B1B688E
:1003F0000CF1040CCCF800306E4B1B680CF1040CB3
:10040000CCF800306C4B1B680CF1040CCCF80030BD
:100410006A4B1B680CF1040CCCF80030684B1B686D
:10042000DFF8A0C1CCF80030674B1B680CF1040C5E
:10043000CCF80030654B1B680CF1040CCCF8003094
:10044000634B1B680CF1040CCCF80030614B1B684B
:100450000CF1040CCCF800305F4B1B680CF1040C61
:10046000CCF800305D4B1B68DFF874C1CCF800306D
:100470005C4B1B680CF1040CCCF800305A4B1B6829
:100480000CF1040CCCF80030584B1B680CF1040C38
:10049000CCF80030564B1B680CF1040CCCF8003043
:1004A000082908BF5FEA000304D1DFF84CC1514BB3
:1004B000CCF80030082908BF5FEA000304D1DFF858
:1004C0003CC1FB23CCF80030082908BF5FEA0003D9
:1004D00008D14B4B92F85842D3F800C064F3030C98
:1004E000C3F800C0082908BF5FEA000305D1DFF8A0
:1004F00014C14FF40073CCF80030082907D14248EA
:10050000016811F0010F1CBF6FF0010101603F484D
:10051000016841F470010160BFF34F8FBFF36F8F2B
:10052000D2E94C104FF01022082905D1042803D934
:10053000D2F8080236490860D2F8000210F0004FE5
:1005400004BFD2F8040210F0004F24D0314B012038
:100550001860314801680029FCD04FF0120CC2F835
:1005600000C201680029FCD0C2F804C20168002959
:10057000FCD00021196001680029FCD0BFF34F8F27
:1005800026480168264A01F4E06111430160BFF387
:100590004F8F00BFFDE724492248086010BC704718
:1005A000380500400404001020C500400804001075
:1005B0000C040010100400101404001018040010A3
:1005C0001C04001040C5004020040010240400104A
:1005D000280400102C040010300400103404001013
:1005E00060C50040380400103C04001040040010B6
:1005F00044040010488103008C56004018F5004068
:10060000E40E0040409602400004004088ED00E007
:100610005805004004E5014000E401400CED00E015
:100620000400FA050090D003400000200648D0F8EE
:10063000401100291CBF0021C0F840110348016887
:10064000491C01607047000000800040300000201D
:10065000064810B5406880470548D0F84011002989
:100660001CBF0021C0F8401110BD00003000002068
:100670000090004002E008C8121F08C1002AFAD109
:1006800070477047002001E001C1121F002AFBD112
:10069000704700002DE9F0410D4D16460F4680468B
:1006A00000244146285D00F021F9285D00F010F992
:1006B000285D00F003F9641C042CF2DB0549384680
:1006C00000F054FA3046BDE8F041024900F04EBA5D
:1006D000E40C0000D906000070B5174C0D462078D8
:1006E00060B1012812D0022817D0032818BF70BDAE
:1006F000084600F0EDF80020207070BD0A46042185
:100700001E2000F055FA0120207070BD0A46042119
:100710001E2000F04DFA0220EEE7084600F01AF91C
:1007200000281CBF032020702A46BDE87040042129
:100730001E2000F03DBA00002C000020044810B537
:10074000006800F073F8BDE8104000F0ADB800009C
:1007500010000020044810B5006800F067F8BDE8FC
:10076000104000F0A9B800001000002010B5044CA3
:10077000206000F093F82068BDE8104000F060B8F9
:100780001000002010B5044CE16860688847A0683C
:10079000BDE8104000F054B800000020411E0329BD
:1007A00088BF7047034908444FF0FF3110F8010C2F
:1007B00000F0BCB8DC0C0000411E032988BF704764
:1007C00010B506490C1814F8010C00F0C3F8C14329
:1007D00014F8010CBDE8104000F0A8B8DC0C0000D3
:1007E000411E032988BF704703490844002110F8BF
:1007F000010C00F09BB80000DC0C000070B50A4D45
:1008000000240121285D00F0B1F8601C032C06D8FB
:1008100028444FF0FF3110F8010C00F087F8641CF9
:10082000042CEED3042070BDDC0C00000349084406
:100830006FF0010110F8010C00F078B8E00C000036
:1008400003490844012110F8010C00F06FB80000C2
:10085000E00C000010B500F0A1F8034A0023126874
:10086000FFF7EAFC10BD00000000002010B500F00A
:10087000A7F80149086010BD00000020054B5A6030
:10088000D960196848434FF47A714843024900F02F
:10089000BDB8000000000020850700000149886005
:1008A000704700000000002002490120086020BFBE
:1008B000FDE700000005004030BF7047800000F1F8
:1008C000A0400249C0F80017704700000C00030068
:1008D000044911F82000012101FA00F00249C1F891
:1008E00004037047E8040020006000400C4A516097
:1008F0000C21830003F1A043C3F80017094941EA22
:10090000002311684FEA810C0CF1804C0CF5C04CAF
:10091000CCF81035044B43F82010481C1060704789
:100920003800002001000300E8040020012202FA40
:1009300000F011F0010F0CBF014902490860704737
:100940000C05005008050050014900200860704760
:1009500014050050012101FA00F00349096808401C
:1009600018BF01207047000004050050012303FA5E
:1009700000F2002902BF074802607047012918BF32
:10098000704705490A60800000F1A040C0F80037B8
:10099000704700001C050050180500500549012053
:1009A000486405480068054A0021126852428018D0
:1009B00049417047008000404485004030000020DD
:1009C0000D49002008600D4A032111600C490860A0
:1009D000111F08600B49801E08600B480121C0F8F8
:1009E00000120A04C0F804234FF0E0238215C3F874
:1009F0000021016010207047300000200885004071
:100A0000108500404085004000800040124A51603F
:100A100001221249002804BF4A607047CA600323BC
:100A2000DFF83CC0CCF80030DFF838C00023CCF849
:100A30000030DFF834C0CCF800300C4B1860C1F83F
:100A400000224FF48030C1F804034FF0E023C011BE
:100A5000C3F800010A607047300000200090004099
:100A600008950040109500400495004040950040D6
:100A700070B5FFF769FFFFF7C1FE0446FFF7F6FE0A
:100A8000002C2BD00120FFF7ABFE0325012000F046
:100A90005BF80320FFF76AFE2A4611494FF4FA700B
:100AA000FFF7ECFE042202210E48FFF7F3FDFFF7EB
:100AB00051FEFFF74FFE0224FFF74CFE641C0A2C88
:100AC000FADB2A4606490020FFF7D8FE2846FFF742
:100AD00065FEFFF733FE2846FFF782FE002070BD5B
:100AE000B9070000E90A00002DE9F041134C054662
:100AF0002079A268401C00F03F00904203D120689A
:100B0000FFF79EFEFEE70023B2F1FF3F08BFA360A0
:100B100065F307060F466060FFF79CFE084A6368AE
:100B200002EB0312C2E902010648C2E9006750F86D
:100B30002510491C40F82510BDE8F0811400002064
:100B40004800002048040020064908604FF0FF30AC
:100B50004860886004480021016041608160C16094
:100B60007047000014000020480400200E4A10B511
:100B700002EB00100268002A04BF016010BD426849
:100B8000002A04BF416010BD8268002A04BF816052
:100B900010BDC268002A04BFC16010BD03480068D0
:100BA000FFF74EFEFEE70000580400202000002062
:100BB0002DE9F041474E5FEA000814460D464FF01C
:100BC000000716D044480178491C042984BF4068B6
:100BD000FFF736FE4FF0FF31737A012228F078409C
:100BE000AB4233D1327070603772C6E90340BDE862
:100BF000F081707AA84201BFF068A0423770777226
:100C000008BFBDE8F081707FA84201BF306AA042F2
:100C10003775777708BFBDE8F08196F83100A842B4
:100C200001BF706BA04286F8287086F8317008BF4B
:100C3000BDE8F08196F84500884201BFB06C904253
:100C400086F83C7086F84570BDE8F081002B08BF3F
:100C50000021737FAB4206D13275B0613777C6E9A8
:100C60000840BDE8F081002B08BF012196F8313023
:100C7000AB4208D186F82820F06286F83070C6E9C9
:100C80000D40BDE8F081002B08BF022196F84530E9
:100C9000AB4208D186F83C20306486F84470C6E93F
:100CA0001240BDE8F081002B08BF032104D0B1F150
:100CB000FF3F08BFBDE8F08101EB810306EB830134
:100CC0004D7206F8232048600F72C1E90340BDE869
:100CD000F081000098040020240000200D0E0F1069
:100CE0001C1D1E1F0B0C1819080D00000000002011
:100CF00044000000740600004C0D00004400002079
:100D000024450000840600000000000000000000F0
:100D100000000000000000000000000000000000D3
:100D200000000000000000000000000000000000C3
:100D300000000000000000000000000000000000B3
:0C0D400000000000000000000090D00344
:0400000500000215E0
:00000001FF
